:100000000C9450000C946D000C946D000C946D00D9
:100010000C946D000C946D000C946D000C946D00AC
:100020000C946D000C946D000C946D000C946D009C
:100030000C943B010C946D000C946D000C946D00BD
:100040000C946D000C946D000C946D000C946D007C
:100050000C946D000C946D000C946D000C946D006C
:100060000C946D000C946D000C946D000C946D005C
:10007000018040201008040201201004020108043D
:10008000020802010101010101010103030303034D
:100090000202020300322E2A00312D2900302C28C2
:1000A00011241FBECFEFD4E0DEBFCDBF11E0A0E032
:1000B000B1E0E4E5F5E002C005900D92A431B1078E
:1000C000D9F721E0A4E1B1E001C01D92A833B20745
:1000D000E1F70E9490020C94A8020C94000026986C
:1000E00027981F9A189A19981A98139A0895809128
:1000F000150180937500809114018093740088E14C
:10010000809378008EE08093770080917700806400
:1001100080937700809177008F7780937700419A62
:1001200020E030E081E0F901EA5EFE4F80838583C4
:1001300082878787848B2F5F3F4F2530310599F762
:100140000C946F0094B1907F892B84B91E9A1E99EC
:10015000FECF81B108959091790095FFFCCF8093F7
:10016000730008958CEF0C94AB00CF93DF93D0E035
:10017000C0E08C2F8D0F0E94AB00CF5FC530C9F758
:10018000DB5FD931A9F7DF91CF910895AF92BF928C
:10019000CF92DF92FF920F931F93CF93DF9390E064
:1001A000C92E91E0D92EE6018881229660E00E9456
:1001B000E80181E0CA30D807B9F7C0E0D0E0F60125
:1001C000F080F2E0CF0ED11C61E08F2D0E94E8019B
:1001D00061E08F2D0E9440028AE0A82E81E0B82EB7
:1001E00000E010E0F5018081F2E0AF0EB11C0E944A
:1001F000A200282FCE0165E070E00E949702800FD8
:10020000911FFC01EA5EFE4F20830F5F1F4F0530F8
:10021000110541F760E08F2D0E94E8012196C5305D
:10022000D10569F6DF91CF911F910F91FF90DF907B
:10023000CF90BF90AF9008950E94C6000E94B20078
:100240000E94B50067E070E080E090E00C94AC01A3
:10025000E1E7F0E08081887F8083A2E7B0E08C91C5
:100260008C7F81608C938081877E80838081887F72
:100270008360808308951F920F920FB60F9211240E
:100280002F933F938F939F93AF93BF9380913001B0
:1002900090913101A0913201B091330130912F0141
:1002A00026E0230F2D3730F029E8230F0396A11DF8
:1002B000B11D03C00296A11DB11D20932F01809393
:1002C000300190933101A0933201B09333018091BA
:1002D000340190913501A0913601B091370101961A
:1002E000A11DB11D8093340190933501A093360177
:1002F000B0933701BF91AF919F918F913F912F9113
:100300000F900FBE0F901F9018953FB7F8948091F3
:10031000340190913501A0913601B091370129B394
:1003200009B601FE05C02F3F19F00196A11DB11DB0
:100330003FBFBA2FA92F982F8827820F911DA11D8B
:10034000B11DBC01CD0143E0660F771F881F991FC7
:100350004A95D1F708950895CF92DF92EF92FF92D8
:10036000CF93DF936B017C010E948501EB01C114E7
:10037000D104E104F10489F00E94AB010E948501DF
:100380006C1B7D0B683E734090F381E0C81AD10866
:10039000E108F108C851DC4FF1CFDF91CF91FF9018
:1003A000EF90DF90CF90089578948BB383608BBBF0
:1003B000D3988AB3887F83608ABB8AB782608ABFFA
:1003C0000E94280183B1887F866083B91F9A0895AF
:1003D000CF93DF9386FF08C0A82FAF73A63010F429
:1003E00085E001C086E18A1BA82FB0E0FD01E0593D
:1003F000FF4F9491FD01EE57FF4FA491AA2309F4FA
:100400003CC0B0E0FD01E456FF4FE491CE2FD0E0B8
:10041000FD01E856FF4FE4912E2F30E0FD01EC5630
:10042000FF4FA491B0E0892F809561110DC04FB7A7
:10043000F894988198239883F90190819823908368
:100440009C9189238C930EC0623071F44FB7F8945D
:10045000588185238883F9018081892B8083EC91E1
:100460009E2B9C934FBF09C02FB7F8943C918323D8
:100470008C93E8819E2B98832FBFDF91CF910895B5
:10048000CF93DF9386FF08C0982F9F73963010F4A8
:1004900085E001C086E1891BA82FB0E0FD01E0598D
:1004A000FF4F9491FD01EE57FF4FA491AA23A9F1AC
:1004B0008D3019F48BB38F7304C0833021F48BB368
:1004C0008F7C8BBB0DC08E3021F4809172008F73B6
:1004D00005C0823029F4809172008F7C8093720075
:1004E000B0E0FD01E856FF4FC491D0E0FD01EC56AD
:1004F000FF4FA491B0E0892F80952FB7611105C0FF
:10050000F89498819823988304C0F894E881E92BA3
:10051000E8839C9189238C932FBFDF91CF9108951D
:100520000E94D4010E9477000E941C01FDCF00248C
:10053000552704C0080E591F880F991F009729F0EE
:1005400076956795B8F37105B9F7802D952F0895C5
:04055000F894FFCF4D
:1005540009000A000B000D000E000100000002005B
:04056400030004008C
:00000001FF
